S01500005450342D4D6963726F636869702E737265636C
S11300000C9434000C9451000C9451000C94510045
S11300100C9451000C9451000C9451000C94510018
S11300200C9451000C9451000C9451000C94510008
S11300300C9451000C9451000C9451000C945100F8
S11300400C9451000C9451000C94A6000C94510093
S11300500C9451000C9451000C9451000C945100D8
S11300600C9451000C94510011241FBECFEFD8E022
S1130070DEBFCDBF11E0A0E0B1E0E0EFF1E002C0EF
S113008005900D92A431B107D9F721E0A4E1B1E0C4
S113009001C01D92A531B207E1F70E9453000C94F0
S11300A0F6000C94000086E284B910928900109244
S11300B0880010928B0010928A0081EF8093800058
S11300C081E08093810085B1846285B987E60E94CE
S11300D0B6000E94C0000E94C60080E091E00E9429
S11300E0DA000E94CC00789440E0842F90E02091C4
S11300F08400309185002817390720F485B18F7D5D
S113010085B903C085B1806285B9809114018823C3
S113011061F380911401873439F0823519F0823407
S113012091F40AC040950FC0EAE8F0E08081918123
S113013080959183808307C0E8E8F0E08081918115
S113014080959183808310921401CFCF1F920F92D8
S11301500FB60F9211248F938091C60080931401DF
S11301608F910F900FBE0F901F9018951092C100A1
S113017096E09093C2001092C5008093C400089545
S1130180E1ECF0E08081886080830895E1ECF0E0A8
S11301908081806180830895E1ECF0E08081806853
S11301A0808308958091C00085FFFCCF08958093DB
S11301B0C6000895EF92FF920F931F93CF937C0193
S11301C0C0E007C00E94D200F80180810E94D700DD
S11301D0CF5F87010C0F111DF80180818111F2CFCF
S11301E0CF911F910F91FF90EF900895F894FFCF56
S11301F0496E677265736520522C2047206F204238
S10702000A0D0000DF
S9030000FC
