S01500005450342D4D6963726F636869702E737265636C
S11300000C9434000C9451000C9451000C94510045
S11300100C9451000C9451000C9451000C94510018
S11300200C9451000C9451000C9451000C94510008
S11300300C9451000C9451000C9451000C945100F8
S11300400C9451000C9451000C94D7000C94510062
S11300500C9451000C9451000C9451000C945100D8
S11300600C9451000C94510011241FBECFEFD8E022
S1130070DEBFCDBF11E0A0E0B1E0E2E5F2E002C0F6
S113008005900D92A431B107D9F721E0A4E1B1E0C4
S113009001C01D92A631B207E1F70E9473000C94CF
S11300A027010C94000081E080937E00EAE7F0E0F1
S11300B0808187688083ECE7F0E0808183668083B9
S11300C00895EAE7F0E080818064808380917A007B
S11300D086FFFCCFEAE7F0E0808180618083809135
S11300E0790090E0089584B1866284B987B1877FEE
S11300F087B9109289001092880010928B00109298
S11301008A00E0E8F0E08081816F8083E1E8F0E03C
S113011080818160808385B1846285B90E945300A7
S113012087E60E94E7000E94F1000E94F70080E049
S113013091E00E940B010E94FD007894C0E08C2F96
S113014090E020918400309185002817390720F42D
S113015085B18F7D85B903C085B1806285B90E9460
S113016061008093150180911401873441F0823538
S113017019F0823491F40AC0C09115010EC0809127
S1130180150190E090938B0080938A008091150173
S113019090E090938900809388002FEF81EE94E0A3
S11301A0215080409040E1F700C00000C8CF1F926A
S11301B00F920FB60F9211248F938091C6008093F3
S11301C014018F910F900FBE0F901F9018951092ED
S11301D0C10096E09093C2001092C5008093C400C1
S11301E00895E1ECF0E08081886080830895E1EC7B
S11301F0F0E08081806180830895E1ECF0E080810B
S11302008068808308958091C00085FFFCCF0895A5
S11302108093C6000895EF92FF920F931F93CF939C
S11302207C01C0E007C00E940301F80180810E94A4
S11302300801CF5F87010C0F111DF8018081811126
S1130240F2CFCF911F910F91FF90EF900895F89402
S1050250FFCFDA
S1130252496E677265736520522C2047206F2042D5
S10702620A0D00007D
S9030000FC
